{
  "_format": "hh-sol-artifact-1",
  "contractName": "Marionette",
  "sourceName": "contracts/Marionette.sol",
  "abi": [
    {
      "anonymous": false,
      "inputs": [
        {
          "indexed": false,
          "internalType": "address",
          "name": "sender",
          "type": "address"
        },
        {
          "indexed": false,
          "internalType": "uint256",
          "name": "amount",
          "type": "uint256"
        }
      ],
      "name": "EtherReceived",
      "type": "event"
    },
    {
      "anonymous": false,
      "inputs": [
        {
          "indexed": false,
          "internalType": "address",
          "name": "receiver",
          "type": "address"
        },
        {
          "indexed": false,
          "internalType": "uint256",
          "name": "amount",
          "type": "uint256"
        }
      ],
      "name": "EtherSent",
      "type": "event"
    },
    {
      "anonymous": false,
      "inputs": [
        {
          "indexed": false,
          "internalType": "bytes",
          "name": "output",
          "type": "bytes"
        }
      ],
      "name": "FunctionCallResult",
      "type": "event"
    },
    {
      "anonymous": false,
      "inputs": [
        {
          "indexed": false,
          "internalType": "uint8",
          "name": "version",
          "type": "uint8"
        }
      ],
      "name": "Initialized",
      "type": "event"
    },
    {
      "anonymous": false,
      "inputs": [
        {
          "indexed": true,
          "internalType": "bytes32",
          "name": "role",
          "type": "bytes32"
        },
        {
          "indexed": true,
          "internalType": "bytes32",
          "name": "previousAdminRole",
          "type": "bytes32"
        },
        {
          "indexed": true,
          "internalType": "bytes32",
          "name": "newAdminRole",
          "type": "bytes32"
        }
      ],
      "name": "RoleAdminChanged",
      "type": "event"
    },
    {
      "anonymous": false,
      "inputs": [
        {
          "indexed": true,
          "internalType": "bytes32",
          "name": "role",
          "type": "bytes32"
        },
        {
          "indexed": true,
          "internalType": "address",
          "name": "account",
          "type": "address"
        },
        {
          "indexed": true,
          "internalType": "address",
          "name": "sender",
          "type": "address"
        }
      ],
      "name": "RoleGranted",
      "type": "event"
    },
    {
      "anonymous": false,
      "inputs": [
        {
          "indexed": true,
          "internalType": "bytes32",
          "name": "role",
          "type": "bytes32"
        },
        {
          "indexed": true,
          "internalType": "address",
          "name": "account",
          "type": "address"
        },
        {
          "indexed": true,
          "internalType": "address",
          "name": "sender",
          "type": "address"
        }
      ],
      "name": "RoleRevoked",
      "type": "event"
    },
    {
      "inputs": [],
      "name": "ACCESS_VIOLATION",
      "outputs": [
        {
          "internalType": "string",
          "name": "",
          "type": "string"
        }
      ],
      "stateMutability": "view",
      "type": "function"
    },
    {
      "inputs": [],
      "name": "DEFAULT_ADMIN_ROLE",
      "outputs": [
        {
          "internalType": "bytes32",
          "name": "",
          "type": "bytes32"
        }
      ],
      "stateMutability": "view",
      "type": "function"
    },
    {
      "inputs": [],
      "name": "IMA_ROLE",
      "outputs": [
        {
          "internalType": "bytes32",
          "name": "",
          "type": "bytes32"
        }
      ],
      "stateMutability": "view",
      "type": "function"
    },
    {
      "inputs": [],
      "name": "PUPPETEER_ROLE",
      "outputs": [
        {
          "internalType": "bytes32",
          "name": "",
          "type": "bytes32"
        }
      ],
      "stateMutability": "view",
      "type": "function"
    },
    {
      "inputs": [
        {
          "internalType": "address",
          "name": "receiver",
          "type": "address"
        },
        {
          "internalType": "uint256",
          "name": "value",
          "type": "uint256"
        },
        {
          "internalType": "bytes",
          "name": "data",
          "type": "bytes"
        }
      ],
      "name": "encodeFunctionCall",
      "outputs": [
        {
          "internalType": "bytes",
          "name": "",
          "type": "bytes"
        }
      ],
      "stateMutability": "pure",
      "type": "function"
    },
    {
      "inputs": [
        {
          "internalType": "address payable",
          "name": "target",
          "type": "address"
        },
        {
          "internalType": "uint256",
          "name": "value",
          "type": "uint256"
        },
        {
          "internalType": "bytes",
          "name": "data",
          "type": "bytes"
        }
      ],
      "name": "execute",
      "outputs": [
        {
          "internalType": "bytes",
          "name": "",
          "type": "bytes"
        }
      ],
      "stateMutability": "payable",
      "type": "function"
    },
    {
      "inputs": [
        {
          "internalType": "bytes32",
          "name": "role",
          "type": "bytes32"
        }
      ],
      "name": "getRoleAdmin",
      "outputs": [
        {
          "internalType": "bytes32",
          "name": "",
          "type": "bytes32"
        }
      ],
      "stateMutability": "view",
      "type": "function"
    },
    {
      "inputs": [
        {
          "internalType": "bytes32",
          "name": "role",
          "type": "bytes32"
        },
        {
          "internalType": "uint256",
          "name": "index",
          "type": "uint256"
        }
      ],
      "name": "getRoleMember",
      "outputs": [
        {
          "internalType": "address",
          "name": "",
          "type": "address"
        }
      ],
      "stateMutability": "view",
      "type": "function"
    },
    {
      "inputs": [
        {
          "internalType": "bytes32",
          "name": "role",
          "type": "bytes32"
        }
      ],
      "name": "getRoleMemberCount",
      "outputs": [
        {
          "internalType": "uint256",
          "name": "",
          "type": "uint256"
        }
      ],
      "stateMutability": "view",
      "type": "function"
    },
    {
      "inputs": [
        {
          "internalType": "bytes32",
          "name": "role",
          "type": "bytes32"
        },
        {
          "internalType": "address",
          "name": "account",
          "type": "address"
        }
      ],
      "name": "grantRole",
      "outputs": [],
      "stateMutability": "nonpayable",
      "type": "function"
    },
    {
      "inputs": [
        {
          "internalType": "bytes32",
          "name": "role",
          "type": "bytes32"
        },
        {
          "internalType": "address",
          "name": "account",
          "type": "address"
        }
      ],
      "name": "hasRole",
      "outputs": [
        {
          "internalType": "bool",
          "name": "",
          "type": "bool"
        }
      ],
      "stateMutability": "view",
      "type": "function"
    },
    {
      "inputs": [
        {
          "internalType": "address",
          "name": "owner",
          "type": "address"
        },
        {
          "internalType": "address",
          "name": "ima",
          "type": "address"
        }
      ],
      "name": "initialize",
      "outputs": [],
      "stateMutability": "nonpayable",
      "type": "function"
    },
    {
      "inputs": [
        {
          "internalType": "bytes32",
          "name": "",
          "type": "bytes32"
        },
        {
          "internalType": "address",
          "name": "sender",
          "type": "address"
        },
        {
          "internalType": "bytes",
          "name": "data",
          "type": "bytes"
        }
      ],
      "name": "postMessage",
      "outputs": [
        {
          "internalType": "address",
          "name": "",
          "type": "address"
        }
      ],
      "stateMutability": "nonpayable",
      "type": "function"
    },
    {
      "inputs": [
        {
          "internalType": "bytes32",
          "name": "role",
          "type": "bytes32"
        },
        {
          "internalType": "address",
          "name": "account",
          "type": "address"
        }
      ],
      "name": "renounceRole",
      "outputs": [],
      "stateMutability": "nonpayable",
      "type": "function"
    },
    {
      "inputs": [
        {
          "internalType": "bytes32",
          "name": "role",
          "type": "bytes32"
        },
        {
          "internalType": "address",
          "name": "account",
          "type": "address"
        }
      ],
      "name": "revokeRole",
      "outputs": [],
      "stateMutability": "nonpayable",
      "type": "function"
    },
    {
      "inputs": [
        {
          "internalType": "address payable",
          "name": "target",
          "type": "address"
        },
        {
          "internalType": "uint256",
          "name": "value",
          "type": "uint256"
        }
      ],
      "name": "sendEth",
      "outputs": [],
      "stateMutability": "payable",
      "type": "function"
    },
    {
      "inputs": [
        {
          "internalType": "bytes4",
          "name": "interfaceId",
          "type": "bytes4"
        }
      ],
      "name": "supportsInterface",
      "outputs": [
        {
          "internalType": "bool",
          "name": "",
          "type": "bool"
        }
      ],
      "stateMutability": "view",
      "type": "function"
    },
    {
      "stateMutability": "payable",
      "type": "receive"
    }
  ],
  "bytecode": "0x608060405234801561001057600080fd5b50611829806100206000396000f3fe6080604052600436106101025760003560e01c8063884cee5a11610095578063a217fddf11610064578063a217fddf14610331578063b61d27f614610346578063ca15c87314610359578063d547741f14610379578063f81299b91461039957600080fd5b8063884cee5a1461027d5780639010d07c146102b557806391d14854146102d55780639bba6b78146102f557600080fd5b806334216d62116100d157806334216d621461020857806336568abe1461022a578063485cc9551461024a57806349dcbc5e1461026a57600080fd5b806301ffc9a7146101465780631e6995911461017b578063248a9ca3146101a85780632f2ff15d146101e657600080fd5b3661014157604080513381523460208201527f1e57e3bb474320be3d2c77138f75b7c3941292d647f5f9634e33a8e94e0e069b910160405180910390a1005b600080fd5b34801561015257600080fd5b5061016661016136600461129d565b6103cd565b60405190151581526020015b60405180910390f35b34801561018757600080fd5b5061019b610196366004611325565b6103f8565b60405161017291906113dd565b3480156101b457600080fd5b506101d86101c33660046113f0565b60009081526065602052604090206001015490565b604051908152602001610172565b3480156101f257600080fd5b50610206610201366004611409565b61042a565b005b34801561021457600080fd5b506101d86000805160206117d483398151915281565b34801561023657600080fd5b50610206610245366004611409565b610454565b34801561025657600080fd5b50610206610265366004611439565b6104d7565b610206610278366004611467565b6105a9565b34801561028957600080fd5b5061029d610298366004611493565b61062e565b6040516001600160a01b039091168152602001610172565b3480156102c157600080fd5b5061029d6102d03660046114d7565b610767565b3480156102e157600080fd5b506101666102f0366004611409565b610786565b34801561030157600080fd5b5061019b6040518060400160405280601081526020016f20b1b1b2b9b9903b34b7b630ba34b7b760811b81525081565b34801561033d57600080fd5b506101d8600081565b61019b610354366004611325565b6107b1565b34801561036557600080fd5b506101d86103743660046113f0565b61085d565b34801561038557600080fd5b50610206610394366004611409565b610874565b3480156103a557600080fd5b506101d87f18f7915ceb1a15dd0c3170ef6d30ba89e0bcb07f4fb55858579385663709107e81565b60006001600160e01b03198216635a05180f60e01b14806103f257506103f282610899565b92915050565b60608484848460405160200161041194939291906114f9565b6040516020818303038152906040529050949350505050565b600082815260656020526040902060010154610445816108ce565b61044f83836108db565b505050565b6001600160a01b03811633146104c95760405162461bcd60e51b815260206004820152602f60248201527f416363657373436f6e74726f6c3a2063616e206f6e6c792072656e6f756e636560448201526e103937b632b9903337b91039b2b63360891b60648201526084015b60405180910390fd5b6104d382826108fd565b5050565b60006104e3600161091f565b905080156104fb576000805461ff0019166101001790555b6105036109a7565b61050e600030610a14565b6105266000805160206117d483398151915284610a14565b6001600160a01b0382161561055f5761055f7f18f7915ceb1a15dd0c3170ef6d30ba89e0bcb07f4fb55858579385663709107e83610a14565b801561044f576000805461ff0019169055604051600181527f7f26b83ff96e1f2b6a682f133852f6798a09c465da95921460cefb38474024989060200160405180910390a1505050565b6105c16000805160206117d483398151915233610786565b6040518060400160405280601081526020016f20b1b1b2b9b9903b34b7b630ba34b7b760811b815250906106085760405162461bcd60e51b81526004016104c091906113dd565b5061044f828260405180604001604052806002815260200161060f60f31b815250610a1e565b600061065a7f18f7915ceb1a15dd0c3170ef6d30ba89e0bcb07f4fb55858579385663709107e33610786565b61069a5760405162461bcd60e51b815260206004820152601160248201527053656e646572206973206e6f7420494d4160781b60448201526064016104c0565b6106b26000805160206117d483398151915285610786565b6040518060400160405280601081526020016f20b1b1b2b9b9903b34b7b630ba34b7b760811b815250906106f95760405162461bcd60e51b81526004016104c091906113dd565b5060006107068484610b10565b90506000610721826000015183602001518460400151610a1e565b90507f96dfc08ca2be84df03b6ba50ac467a2e3cfa446eebcc623851fbee1ba03017848160405161075291906113dd565b60405180910390a15060009695505050505050565b600082815260976020526040812061077f9083610b53565b9392505050565b60009182526065602090815260408084206001600160a01b0393909316845291905290205460ff1690565b60606107cb6000805160206117d483398151915233610786565b6040518060400160405280601081526020016f20b1b1b2b9b9903b34b7b630ba34b7b760811b815250906108125760405162461bcd60e51b81526004016104c091906113dd565b50610854858585858080601f016020809104026020016040519081016040528093929190818152602001838380828437600092019190915250610a1e92505050565b95945050505050565b60008181526097602052604081206103f290610b5f565b60008281526065602052604090206001015461088f816108ce565b61044f83836108fd565b60006001600160e01b03198216637965db0b60e01b14806103f257506301ffc9a760e01b6001600160e01b03198316146103f2565b6108d88133610b69565b50565b6108e58282610bcd565b600082815260976020526040902061044f9082610c53565b6109078282610c68565b600082815260976020526040902061044f9082610ccf565b60008054610100900460ff1615610966578160ff1660011480156109425750303b155b61095e5760405162461bcd60e51b81526004016104c090611541565b506000919050565b60005460ff80841691161061098d5760405162461bcd60e51b81526004016104c090611541565b506000805460ff191660ff92909216919091179055600190565b600054610100900460ff16610a125760405162461bcd60e51b815260206004820152602b60248201527f496e697469616c697a61626c653a20636f6e7472616374206973206e6f74206960448201526a6e697469616c697a696e6760a81b60648201526084016104c0565b565b6104d382826108db565b60603415610a5f57604080513381523460208201527f1e57e3bb474320be3d2c77138f75b7c3941292d647f5f9634e33a8e94e0e069b910160405180910390a15b8215610aa857604080516001600160a01b0386168152602081018590527f6109e2559dfa766aaec7118351d48a523f0a4157f49c8d68749c8ac41318ad12910160405180910390a15b6001600160a01b0384163b15610adc576004825110610adc57610ad56001600160a01b0385168385610ce4565b905061077f565b610aef6001600160a01b03851684610d12565b50604080518082019091526002815261060f60f31b60208201529392505050565b60408051606080820183526000808352602083015291810191909152610b38828401846115a5565b604084015260208301526001600160a01b0316815292915050565b600061077f8383610e2b565b60006103f2825490565b610b738282610786565b6104d357610b8b816001600160a01b03166014610e55565b610b96836020610e55565b604051602001610ba7929190611672565b60408051601f198184030181529082905262461bcd60e51b82526104c0916004016113dd565b610bd78282610786565b6104d35760008281526065602090815260408083206001600160a01b03851684529091529020805460ff19166001179055610c0f3390565b6001600160a01b0316816001600160a01b0316837f2f8788117e7eff1d82e926ec794901d17c78024a50270940304540a733656f0d60405160405180910390a45050565b600061077f836001600160a01b038416610ff1565b610c728282610786565b156104d35760008281526065602090815260408083206001600160a01b0385168085529252808320805460ff1916905551339285917ff6391f5c32d9c69d2a47ea670b442974b53935d1edc7fd64eb21e047a839171b9190a45050565b600061077f836001600160a01b038416611040565b6060610d0a8484846040518060600160405280602981526020016117ab60299139611133565b949350505050565b80471015610d625760405162461bcd60e51b815260206004820152601d60248201527f416464726573733a20696e73756666696369656e742062616c616e636500000060448201526064016104c0565b6000826001600160a01b03168260405160006040518083038185875af1925050503d8060008114610daf576040519150601f19603f3d011682016040523d82523d6000602084013e610db4565b606091505b505090508061044f5760405162461bcd60e51b815260206004820152603a60248201527f416464726573733a20756e61626c6520746f2073656e642076616c75652c207260448201527f6563697069656e74206d6179206861766520726576657274656400000000000060648201526084016104c0565b6000826000018281548110610e4257610e426116e7565b9060005260206000200154905092915050565b60606000610e64836002611713565b610e6f906002611732565b67ffffffffffffffff811115610e8757610e8761158f565b6040519080825280601f01601f191660200182016040528015610eb1576020820181803683370190505b509050600360fc1b81600081518110610ecc57610ecc6116e7565b60200101906001600160f81b031916908160001a905350600f60fb1b81600181518110610efb57610efb6116e7565b60200101906001600160f81b031916908160001a9053506000610f1f846002611713565b610f2a906001611732565b90505b6001811115610fa2576f181899199a1a9b1b9c1cb0b131b232b360811b85600f1660108110610f5e57610f5e6116e7565b1a60f81b828281518110610f7457610f746116e7565b60200101906001600160f81b031916908160001a90535060049490941c93610f9b8161174a565b9050610f2d565b50831561077f5760405162461bcd60e51b815260206004820181905260248201527f537472696e67733a20686578206c656e67746820696e73756666696369656e7460448201526064016104c0565b6000818152600183016020526040812054611038575081546001818101845560008481526020808220909301849055845484825282860190935260409020919091556103f2565b5060006103f2565b60008181526001830160205260408120548015611129576000611064600183611761565b855490915060009061107890600190611761565b90508181146110dd576000866000018281548110611098576110986116e7565b90600052602060002001549050808760000184815481106110bb576110bb6116e7565b6000918252602080832090910192909255918252600188019052604090208390555b85548690806110ee576110ee611778565b6001900381819060005260206000200160009055905585600101600086815260200190815260200160002060009055600193505050506103f2565b60009150506103f2565b6060824710156111945760405162461bcd60e51b815260206004820152602660248201527f416464726573733a20696e73756666696369656e742062616c616e636520666f6044820152651c8818d85b1b60d21b60648201526084016104c0565b6001600160a01b0385163b6111eb5760405162461bcd60e51b815260206004820152601d60248201527f416464726573733a2063616c6c20746f206e6f6e2d636f6e747261637400000060448201526064016104c0565b600080866001600160a01b03168587604051611207919061178e565b60006040518083038185875af1925050503d8060008114611244576040519150601f19603f3d011682016040523d82523d6000602084013e611249565b606091505b5091509150611259828286611264565b979650505050505050565b6060831561127357508161077f565b8251156112835782518084602001fd5b8160405162461bcd60e51b81526004016104c091906113dd565b6000602082840312156112af57600080fd5b81356001600160e01b03198116811461077f57600080fd5b6001600160a01b03811681146108d857600080fd5b60008083601f8401126112ee57600080fd5b50813567ffffffffffffffff81111561130657600080fd5b60208301915083602082850101111561131e57600080fd5b9250929050565b6000806000806060858703121561133b57600080fd5b8435611346816112c7565b935060208501359250604085013567ffffffffffffffff81111561136957600080fd5b611375878288016112dc565b95989497509550505050565b60005b8381101561139c578181015183820152602001611384565b838111156113ab576000848401525b50505050565b600081518084526113c9816020860160208601611381565b601f01601f19169290920160200192915050565b60208152600061077f60208301846113b1565b60006020828403121561140257600080fd5b5035919050565b6000806040838503121561141c57600080fd5b82359150602083013561142e816112c7565b809150509250929050565b6000806040838503121561144c57600080fd5b8235611457816112c7565b9150602083013561142e816112c7565b6000806040838503121561147a57600080fd5b8235611485816112c7565b946020939093013593505050565b600080600080606085870312156114a957600080fd5b8435935060208501356114bb816112c7565b9250604085013567ffffffffffffffff81111561136957600080fd5b600080604083850312156114ea57600080fd5b50508035926020909101359150565b6001600160a01b0385168152602081018490526060604082018190528101829052818360808301376000818301608090810191909152601f909201601f191601019392505050565b6020808252602e908201527f496e697469616c697a61626c653a20636f6e747261637420697320616c72656160408201526d191e481a5b9a5d1a585b1a5e995960921b606082015260800190565b634e487b7160e01b600052604160045260246000fd5b6000806000606084860312156115ba57600080fd5b83356115c5816112c7565b925060208401359150604084013567ffffffffffffffff808211156115e957600080fd5b818601915086601f8301126115fd57600080fd5b81358181111561160f5761160f61158f565b604051601f8201601f19908116603f011681019083821181831017156116375761163761158f565b8160405282815289602084870101111561165057600080fd5b8260208601602083013760006020848301015280955050505050509250925092565b7f416363657373436f6e74726f6c3a206163636f756e74200000000000000000008152600083516116aa816017850160208801611381565b7001034b99036b4b9b9b4b733903937b6329607d1b60179184019182015283516116db816028840160208801611381565b01602801949350505050565b634e487b7160e01b600052603260045260246000fd5b634e487b7160e01b600052601160045260246000fd5b600081600019048311821515161561172d5761172d6116fd565b500290565b60008219821115611745576117456116fd565b500190565b600081611759576117596116fd565b506000190190565b600082821015611773576117736116fd565b500390565b634e487b7160e01b600052603160045260246000fd5b600082516117a0818460208701611381565b919091019291505056fe416464726573733a206c6f772d6c6576656c2063616c6c20776974682076616c7565206661696c6564dbe8b307f60c9ed0e3764e9100b17f1d4c5fd58ba7889d208d166f481302d4cfa2646970667358221220c0e2fcbb9063434160635038239e847cc639cf140aa502e2ce23320b8b13c82c64736f6c634300080b0033",
  "linkReferences": {},
  "deployedLinkReferences": {}
}